:020000040800F2
:10000000A814002031020008390200083B02000851
:100010003D0200083F020008410200080000000005
:10002000000000000000000000000000990100082E
:100030004502000800000000DD010008C10E0008B4
:100040004B0200084B0200084B0200084B0200085C
:100050004B0200084B0200084B0200084B0200084C
:100060004B0200084B0200084B0200084B0200083C
:100070004B0200084B0200084B0200084B0200082C
:100080004B0200084B0200084B0200084B0200081C
:100090004B0200084B0200084B0200084B0200080C
:1000A0004B0200084B0200084B0200084B020008FC
:1000B0004B0200084B0200084B0200084B020008EC
:1000C0004B0200084B0200084B0200084B020008DC
:1000D0004B0200084B0200084B0200084B020008CC
:1000E0004B0200084B0200084B02000800F002F827
:1000F00000F042F80AA090E8000C82448344AAF180
:100100000107DA4501D100F037F8AFF2090EBAE87D
:100110000F0013F0010F18BFFB1A43F0010318473B
:10012000441A0000641A0000103A24BF78C878C14D
:10013000FAD8520724BF30C830C144BF04680C60ED
:10014000704700000023002400250026103A28BF35
:1001500078C1FBD8520728BF30C148BF0B60704739
:100160001FB59DE8030000F029FC00F029F91FBD30
:1001700010B500F08EF910BD00F0E5F91146FFF75B
:10018000EFFF00F099FF00F0EBFB03B4FFF7F0FF87
:1001900003BC00F085FD0000224B19680868B0E838
:1001A000F00F80F30988BFF36F8F4FF0000080F3EA
:1001B00011884EF00D0E70470000000006480068E0
:1001C000006880F3088862B661B6BFF34F8FBFF353
:1001D0006F8F00DF00BF00BF08ED00E0EFF3098084
:1001E000BFF36F8F0F4B1A6820E9F00F106008B54E
:1001F0004FF0500080F31188BFF34F8FBFF36F8F24
:1002000001F0B8FA4FF0000080F31188BDE8084013
:1002100019680868B0E8F00F80F30988BFF36F8FA2
:10022000704700BF00000020EFF30580704700001A
:100230000948804709480047FEE7FEE7FEE7FEE77A
:10024000FEE7FEE7FEE7FEE7FEE7FEE704480549B6
:10025000054A064B70470000F50E0008ED00000847
:10026000A80E0020A8140020A8100020A81000202C
:100270000FB4044910B503AA029800F051F810BC5D
:100280005DF814FB9C0D002002F0FF0343EA0322FB
:1002900042EA024200F058B84FF0013C50F8042BFB
:1002A00051F8043B9A4221D1A2EB0C03934313EA89
:1002B000CC1317D150F8042B51F8043B9A4215D1B6
:1002C000A2EB0C03934313EACC130BD150F8042B8D
:1002D00051F8043B9A4209D1A2EB0C03934313EA71
:1002E000CC13DBD04FF00000704700BFD01A01BA2A
:1002F000B1FA81F101F0180122FA01F0CB40C1F10D
:100300002001DBB2C0B2C01A2CFA01F3D11A91431A
:1003100011EAC311E6D1704770477047704700007B
:10032000074B70B50D467B4400F033F80446284671
:1003300000F042F810B14FF0FF3070BD204670BDA4
:10034000750D00004FF000020429C0F0128010F07B
:10035000030C00F0D380CCF1040CBCF1020F18BFE9
:1003600000F8012BA8BF20F8022BA1EB0C0100F034
:10037000C5B85FEAC17C24BF00F8012B00F8012B4F
:1003800048BF00F8012B704701694A1C02610878D8
:10039000704700B58FB0CDE90131002105910549C5
:1003A0007944CDE903101146684600F018F90FB002
:1003B00000BD0000E5FFFFFF007B00F080007047FC
:1003C00010B54248542100F097F84148542100F0FC
:1003D00093F84048542100F08FF83F493B483C4A8D
:1003E0003F4B08603D490A603A491960531C036558
:1003F000481C1065012008653B48344A39A17844FF
:1004000000F012FA20B9384878440A3800F0AEFA01
:1004100037482F4A35A1784400F006FA20B934480D
:1004200078440A3800F0A2FA32482A4A2FA17844C8
:1004300000F0FAF920B92F4878440A3800F096FA0B
:1004400040232248DC000021224600F0CAF920B1F6
:1004500025487844543800F089FA1D482246402344
:10046000002100F0BEF920B121487844543800F052
:100470007DFA184822461023002100F0B2F9002826
:1004800006D01C487844BDE81040563800F06EBADB
:1004900010BD104870B5006D20F001040B4800F04D
:1004A00039FA0B4800F036FA0A4800F033FA09E04E
:1004B000206D20F00105204600F02CFA204600F0C7
:1004C00067F82C46002CF3D170BD0000480D0020C9
:1004D0009C0D0020F00D002074000020780000200A
:1004E0007C000020720000004A1700007700000026
:1004F00039170000291700004FF0000200B513461D
:1005000094469646203922BFA0E80C50A0E80C5033
:10051000B1F12001BFF4F7AF090728BFA0E80C50E4
:1005200048BF0CC05DF804EB890028BF40F8042BDD
:1005300008BF704748BF20F8022B11F0804F18BF4A
:1005400000F8012B7047754600F018FAAE4605001A
:100550006946534620F00700854618B020B5FFF7DE
:1005600075FEBDE820404FF000064FF000074FF049
:1005700000084FF0000B21F00701AC46ACE8C009C1
:10058000ACE8C009ACE8C009ACE8C0098D467047CA
:1005900070B50446051F00F0F5F90068002C14BF83
:1005A000446870BD002C18BFAC423CBF2046646854
:1005B000F8D301680A18AA4218BF456003D12A6817
:1005C00005461144016028684119A1421CBF6C60B6
:1005D00070BD6168696021680844286070BD2DE9BC
:1005E000F04106460024D6E90170F568804602E035
:1005F0004146B847641C3046A8470028F8D1204639
:10060000BDE8F0812DE9F04705460C46C86820F4A6
:10061000201040F48000C860800602D5084600F033
:10062000FEFAE06841F282014FF0FF3901400229F1
:1006300003D0204600F09CFAB8E000F42041B1F568
:10064000004F0FD1C00306D56168E06A884200D828
:100650000846606006E02069E0626060606900F062
:100660008CFCA061A0680022EEB200280DDAE168DF
:100670008B050AD4C043A06041F490302260E06052
:100680006068411C61600670A9E0E06890462260E5
:1006900040F40050E060206968BB606900F080FCB5
:1006A000012704F12405A0B1A08910F4407F08D0EF
:1006B000E06900F0B2F9206118B1E06840F4006030
:1006C00016E0E7612561E06820F4407040F4806046
:1006D0000EE0E06900F0A1F900282061F1D0E068A7
:1006E00040F4006010F4407FE06002D140F480707C
:1006F000E06020696060E06825696FF0010AC1056B
:1007000021D56168E06A884200D80846411B04D0C0
:100710002246284600F036FAF0BBE068010203D515
:10072000E562C4E9015858E005F10101E162616048
:10073000E16940F48030A1F10101C4E902103046C2
:100740002E70BDE8F087010202D500F480320AE085
:100750006068411C61600670E0680A2E40F48030D9
:10076000E06006D00022E16A6068814203D90B464E
:1007700002E00122F7E70346A789A3EB05037F0503
:1007800003D4E7699F4200DDEAB1814200D8014607
:100790000F1A002BE56200E008E0C4E9015807DD0C
:1007A00022461946284600F0EDF908B14846C8E748
:1007B0004FB1A069E5626560A0EB0700A061E06849
:1007C00040F01000E060E068000208D56168A069B0
:1007D000E562491B08446560A0615046B1E73046B8
:1007E000AFE770B5C468A50713D0650211D4B2F5A0
:1007F000807F09D0B2F5007F06D0B2F5806F08D1B6
:10080000012300F1240106E05D1E6FF07F46B54232
:1008100001D3012070BD0161C361416024F47061A6
:100820001143C160002070BD2DE9F0410C46074620
:100830001646104600F06EF82078611C61280AD038
:10084000722802D077283CD102E00125002405E07F
:100850000225042402E0082448F2020511F8010BE5
:100860002B2806D0622809D011F8010C74280AD070
:100870000BE045F0030544F00204EFE745F0040502
:1008800044F00104EAE744F010043846214600F041
:1008900099FB411C15D00021316171604FF400714A
:1008A000F560F1617061200704D530460222002115
:1008B00000F0E2F8306D40F0010030653046BDE8F0
:1008C000F0810020FBE72DE9F0410D460646104C73
:1008D000206DC10704D0410804D020F00104F7E7DF
:1008E00022460EE0542000F098F807000ED0206D4C
:1008F00047F001010843542120653846FFF7FCFD0D
:100900003A4629463046BDE8F0418DE70020D6E75B
:10091000480D00202DE9F04704464FF000094FF044
:10092000FF37C568D4E90486A80707D0204600F041
:1009300053F9304600F00EFB002802DA3846BDE8D5
:10094000F087280502D54046FFF722FE4C212046BD
:10095000FFF7D2FD206D20F0010020654846EEE74C
:100960000446AFF300802046FFF70FFC10B500F0FF
:100970007DF9BDE8104000F073B9000000487047F1
:10098000440E0020004870474C0E0020704770470E
:100990007047704738B504460A4600206946AFF3F1
:1009A0000080002808BF38BD02460099204600F0AC
:1009B00084F9012038BD012000F0D5B9F8B5AFF3B6
:1009C0000080054600200C46102000BF0646A819EE
:1009D000A0420DD9324669460020AFF300800700DF
:1009E00008BF00F0C0F90098A04218BF0546C4191E
:1009F000FFF7C8FF05600746F01D20F00700461905
:100A0000284600F053F9B44208BFF8BDA21B314696
:100A10003868BDE8F84000F050B970B50646FFF7F9
:100A2000B1FF056806F10B0020F00704B4429CBF3B
:100A3000002070BD2B466A68BAB11068A04210D37E
:100A400004F1080188423CBF5068586007D35168E0
:100A5000101941601168091B016058601460101D75
:100A600070BD13465268002AE7D121462846FFF799
:100A700091FF0028DED170BD2DE9F04104461646F5
:100A80000D464769007B80072ED0384600F088FA73
:100A900050BB3EB3012E02D0022E25D104E02046E9
:100AA00000F025F905441DE0384600F066FAE168DB
:100AB000002841F01001E16005DA204600F058F806
:100AC0000120BDE8F081C9030BD56268E16A91425B
:100AD00000D81146A26911442269891A814200DDB9
:100AE00008460544002D01DA0220EAE7E16A606861
:100AF000E268814206D29103E06203D522F400311C
:100B000041F01002A6690027AE4213DCE16A81427F
:100B100001D90B4600E0034603EB060C2369ACEB5E
:100B2000030CAC4506DD814201D98C4600E08446C9
:100B30009C4505D1A760276042F02000A5620DE02A
:100B4000AD1BE669AE1B8142A66000D90846C01AFB
:100B5000281A20605819606022F0200003490840DC
:100B6000E060002084F84870ABE70000BFCFD7FFFB
:100B7000C16821F4001141F08001C1600021816051
:100B8000016070472DE9F047814614460E464FF04C
:100B9000FF383248D5685769054209D03846A169FF
:100BA00000F044FA002811DB2C48C0430540E56002
:100BB0002B4632464946384600F04EFAA16920F0ED
:100BC0000042B21A11440028A16103D02046FFF769
:100BD000CFFF4046BDE8F08770B504460569C06A9E
:100BE0006168884200D80846E16821F42011E1607C
:100BF000C90312D5A84208D02246411B2846FFF758
:100C0000C1FF10B14FF0FF3070BD0020E562C4E9B4
:100C10000150E06820F48030E060002070BD10B525
:100C20000446C06820F02000E060A16AA069884204
:100C30000DD02046FFF7D0FFE06820F4405040F090
:100C40001000E060A06AA0612069E062606044F288
:100C50004001E0688843E06010BD00001000020021
:100C6000002801D000F01CB87047000010B5014604
:100C700002A000F05FF8012010BD00005349475268
:100C8000545245443A2052656469726563743A204F
:100C900063616E2774206F70656E3A20000000005B
:100CA00001491820ABBEFEE72600020000210160CA
:100CB000C0E90110704710207047034640688C4619
:100CC000002818BF88423CBF03464068F8D3186824
:100CD0001844884207D00CF1030020F00700001DE3
:100CE000411A521A0146081D0A60FFF751BC10B59F
:100CF0000146C268900703D0900607D5886A0BE0CA
:100D000000F040F801210160881E10BD8B69486821
:100D100018440B69A0EB030091F8483023B191F817
:100D20004910A0EB010010BD1103FCD50028FADD2D
:100D3000401E10BD70B505460C460A2000E06D1C33
:100D400000F018F835B128780028F8D102E0641CCA
:100D500000F010F814B120780028F8D1BDE87040F8
:100D60000A2000F007B810B500F010F8BDE81040F8
:100D7000FFF776BF08B569468DF800000320ABBECB
:100D800008BD704700487047440E002010B5012888
:100D900005D0002103A0FFF7CDFF012010BD09A160
:100DA000F8E7000053494752544D454D3A204F75DE
:100DB00074206F662068656170206D656D6F727953
:100DC000000000003A2048656170206D656D6F720B
:100DD0007920636F727275707465640010B500F0ED
:100DE00001F810BD0CB50020019000903248006859
:100DF00040F480303049086000BF2F48006800F49C
:100E0000003000900198401C0190009818B901989A
:100E1000B0F5A06FF1D12848006810F4003F02D06F
:100E20000120009001E0002000900098012842D1AC
:100E30002248006840F01000204908600846006819
:100E400020F0070008600846006840F002000860D3
:100E50001948406818494860084640684860084694
:100E6000406840F4806048600846406820F47C1088
:100E700048600846406840F4E8104860084600684A
:100E800040F08070086000BF0B48006810F0007FE1
:100E9000FAD00948406820F0030007494860084636
:100EA000406840F00200486000BF0348406800F01E
:100EB0000C000828F9D10CBD0010024000200240AF
:100EC00010B500BF502080F31188BFF34F8FBFF3E0
:100ED0006F8F00BF00F014FD18B14FF0805004492F
:100EE000086000BF002080F3118800BF10BD000023
:100EF00004ED00E010B51348006840F0010011490E
:100F0000086008464068104908400E494860084695
:100F100000680E4908400B4908600846006820F444
:100F2000802008600846406820F4FE0048604FF4C6
:100F30001F008860FFF752FF4FF00060044908600F
:100F400010BD0000001002400000FFF8FFFFF6FE99
:100F500008ED00E001466FF40040081804D00128B5
:100F600004D0022806D103E0002070470020FCE7EF
:100F70000020FAE74FF0FF30F7E701466FF400403A
:100F8000081804D0012804D0022806D103E000206C
:100F900070470020FCE70020FAE74FF0FF30F7E74A
:100FA00001466FF40040081804D0012804D002283C
:100FB00006D103E0012070470120FCE70120FAE799
:100FC0000020F8E770B504460D4614B94FF0FF3025
:100FD00070BD20783A281AD10EA12046FFF75CF99F
:100FE00010B948F20100F3E70CA12046FFF754F9CD
:100FF00010B948F20200EBE70AA12046FFF74CF9CE
:1010000010B948F20300E3E74FF0FF30E0E74FF09C
:10101000FF30DDE73A535444494E00003A535444FC
:101020004F5554003A5354444552520002466FF40F
:101030000040101804D0012805D0022809D105E08D
:101040004FF0FF3070474FF0FF30FBE74FF0FF30BD
:10105000F8E74FF0FF30F5E72DE9F04106460C4682
:10106000154698466FF40040301804D0012806D089
:10107000022811D10EE04FF0FF30BDE8F08105E00D
:1010800014F8017B384600F027FA6D1E002DF7D1C9
:101090000020F2E70020F0E74FF0FF30EDE78A682C
:1010A000002A01DCFFF7AEBA521E8A604A68C0B25D
:1010B000531C4B60107070471CB500200121034683
:1010C0009622CDE9001009A1094800F0E9FB0020B3
:1010D000012103469622CDE9001006A1064800F042
:1010E000DFFB00F0FBFA00201CBD000054310000C3
:1010F0006516000854320000A116000810B5044619
:1011000000F036FA24480068401C23490860234850
:10111000006840B9214804600846006801280DD1E4
:1011200000F0FEF80AE01E48006838B91B48006865
:10113000C06AE16A884201D818480460194800680A
:10114000401C1849086008460068206494F82C1078
:101150000120884014490968084313490860E16A7E
:1011600001EB8101114A02EB8100211D00F0F4F92D
:1011700000F02AFA0A48006868B108480068C06AA6
:10118000E16A884207D24FF0805009490860BFF3F6
:101190004F8FBFF36F8F10BD0800002000000020AC
:1011A00014000020240000201000002080000020F7
:1011B00004ED00E070B523E000F0D4FA13480068B5
:1011C00008B9012000E00020054600F03DFCBDB953
:1011D00000F0CEF90D48C068C468201D00F098F9F1
:1011E0000B480068401E0A4908600A480068401E13
:1011F0000849086000F0E8F9204600F00DF800BF4B
:10120000044800680028D7D170BD000020010020EC
:10121000080000200400002010B50446206B00F0F8
:10122000F1F9204600F0EEF910BD00000A4A22F064
:1012300007000A4A10600022084B5A6040F6F83254
:10124000074B5A6000221A60014640F6F8324A60A5
:101250001A460A607047000050010020500000202C
:101260005800002000BFFFF7A5FFFCE72DE9F05F65
:1012700082460F4690469B460A9E0C9C4FEA880188
:10128000A522206BFFF700F8A8F10100216B01EB0C
:10129000800929F0070919F0070F01D1012000E0AA
:1012A000002050B900BF502080F31188BFF34F8F4A
:1012B000BFF36F8F00BF00BFFEE7002507E0795D39
:1012C00004F134004155785D00B902E06D1C0A2D2F
:1012D000F5D300BF00213D200155052E00D3042683
:1012E000E662A6640020E064201D00F032F904F1FB
:1012F000180000F02EF92461C6F10500A0616462B7
:101300000020206584F854005A465146484600F0B3
:10131000D1F820600B9808B10B980460BDE8F09FED
:1013200010B5002407E004EB84010F4A02EB8100B2
:1013300000F002F9641C052CF5D30C4800F0FCF811
:101340000B4800F0F9F80B4800F0F6F80A4800F0F6
:10135000F3F80A4800F0F0F8044809490860044826
:101360000849086010BD000080000020E400002053
:10137000F80000200C010020200100203401002092
:1013800034000020380000200A490968096809B9BA
:10139000012100E0002121B14FF0FF31064A116028
:1013A00006E004490968C968C868034A41681160D1
:1013B0007047000034000020280000200E4800681C
:1013C000401C01D1012000E0002050B900BF502096
:1013D00080F31188BFF34F8FBFF36F8F00BF00BF43
:1013E000FEE700BF502080F31188BFF34F8FBFF39B
:1013F0006F8F00BF00BFFEE73C0000202DE9F041E9
:1014000004464FF0000800F0ADF92648006820B906
:10141000FFF70CFF01202349086044B1083414F0A1
:10142000070F04D004F00700C0F108000444002CAA
:1014300032D040F6F83084422ED21B4F3846056831
:1014400001E02F462D686868A04202D22868002873
:10145000F7D1164885421FD0386800F1080828687F
:1014600038606868001B102810D92E196868001BA6
:1014700070606C6071680C4800E000680268526837
:101480008A42FAD302683260066000BF0849686881
:101490000968081A0649086000F0D6FA4046BDE817
:1014A000F08100004C000020500000205800002077
:1014B00048000020001F4FF080730360001F21F0E0
:1014C00001030360001F034B0360143802602038DF
:1014D00070470000BD130008014608460B4A126819
:1014E00012F0010F0FD0094A803A126812F0010F72
:1014F00009D000E000BF4FF060421268002AF9D026
:101500004FF06043187000BF70470000800E00E08D
:1015100001460A69D1E901309860D1E901035860B8
:101520005068884201D188685060002008611068C6
:10153000401E10601068704700F1080141604FF0D4
:10154000FF31816000F10801C1600161002101608B
:10155000704700210161704742684A6093688B6060
:10156000936859609160086103685B1C0360704771
:1015700000BF502080F31188BFF34F8FBFF36F8FF0
:1015800000BF0F480068401C0D490860084600680D
:10159000012813D10B48006810F0FF0F01D1012082
:1015A00000E0002050B900BF502080F31188BFF345
:1015B0004F8FBFF36F8F00BF00BFFEE77047000083
:1015C0003C00002004ED00E00D48006850B900BF69
:1015D000502080F31188BFF34F8FBFF36F8F00BF90
:1015E00000BFFEE706480068401E0549086008463F
:1015F000006820B9002080F3118800BF00BF704749
:101600003C00002070B506463546B6B1083D2C4674
:1016100000F0A8F86168094800E0006802685268B4
:101620008A42FAD30268226004600549606809684A
:1016300008440349086000F007FA70BD500000201C
:1016400048000020064800684FF47A71B0FBF1F0C2
:10165000401E4FF0E02148610720086170470000FC
:101660006000002008B50020009000BF06A0FEF733
:10167000FFFD0020009002E00098401C0090074908
:1016800000988842F2D2F7E75461736B2D312052F3
:10169000756E6E696E672E0A00000000404B4C00AC
:1016A00008B50020009000BF06A0FEF7E1FD002075
:1016B000009002E00098401C009007490098884282
:1016C000F2D2F7E75461736B2D322052756E6E695A
:1016D0006E672E0A00000000404B4C001CB51A48F3
:1016E00000210B468222CDE9001018A1194800F014
:1016F000D7F80446012C15D100BF502080F3118883
:10170000BFF34F8FBFF36F8F00BF4FF0FF30124911
:10171000086001201149086000201149086000F0AC
:101720006FF810E0601C01D0012000E0002050B9EB
:1017300000BF502080F31188BFF34F8FBFF36F8F2E
:1017400000BF00BFFEE71CBD2C00002049444C45F3
:10175000000000006512000828000020140000208E
:101760000C00002002480068401C014908607047D6
:10177000300000201D48006818B101201C49086095
:1017800032E000201A4908601A480068B0FA80F078
:10179000C0F11F0101EB8100174A52F8200008B187
:1017A000012000E0002050B900BF502080F31188D4
:1017B000BFF34F8FBFF36F8F00BF00BFFEE701EB9A
:1017C00081020D4B03EB820042685268426000F1D7
:1017D00008024368934202D14268526842604268FC
:1017E000D268064B1A6000BF70470000300000202E
:1017F0001C000020100000208000002000000020BD
:101800001CB52248014609780191FF21024611705A
:101810000146097800919DF8001001F050011C4A22
:10182000117007211B4A116009E01A490968491E15
:10183000184A11609DF800104906090E00919DF8A4
:10184000001001F080018029EFD0124909680902D7
:10185000104A11601146098801F4E06111600B4AD9
:10186000019911700C48006840F470000A49086042
:101870000846006840F070400860FFF7E3FE002073
:1018800006490860FEF79AFC00201CBD00E400E059
:10189000400000204400002020ED00E03C0000203B
:1018A0002DE9FF4F85B0804689461746DDE912AB2A
:1018B000B800FFF7A3FD064656B15820FFF79EFD7E
:1018C00004460CB1266304E03046FFF79BFE00E0BF
:1018D00000247CB10020CDE900ABCDE902403A46BE
:1018E00049464046089BFFF7C1FC2046FFF706FC2F
:1018F000012501E04FF0FF35284609B0BDE8F08F23
:101900002DE9F0414FF0000844480068002877D1E5
:1019100043480068451C4248056015BB41480068C3
:10192000006808B9012000E0002050B900BF502035
:1019300080F31188BFF34F8FBFF36F8F00BF00BFDD
:10194000FEE7384807683848006836490860364876
:10195000076036480068401C34490860FFF714FDF2
:1019600000BF3348006885423CD300BF2D48006863
:10197000006808B9012000E0002020B14FF0FF30DE
:101980002B4908602DE027480068C068C468666875
:10199000B54202D22648066023E0201DFFF7B8FDBD
:1019A000A06A18B104F11800FFF7B2FD94F82C10EA
:1019B000012088401F49096808431E490860E16A00
:1019C00001EB81011C4A02EB8100211DFFF7C4FDE0
:1019D0001A49E06A0968C96A8842C7D34FF001080A
:1019E000C4E700BF15480068C06A00EB80001249D8
:1019F00051F82000012801D94FF0010805E0FFE768
:101A00000F480068401C0E4908600E48006808B185
:101A10004FF001084046BDE8F08100003000002092
:101A20000C0000203400002038000020200000209E
:101A3000280000201000002080000020000000206E
:101A4000180000201C00002070B500240026364835
:101A5000006850B900BF502080F31188BFF34F8F4A
:101A6000BFF36F8F00BF00BFFEE7FFF781FD2E4879
:101A70000068401E2C4908600846006800284FD1C5
:101A80002A48006800284BD024E02948C068C46870
:101A900004F11800FFF73CFD201DFFF739FD94F815
:101AA0002C10012088402349096808432149086017
:101AB000E16A01EB8101204A02EB8100211DFFF761
:101AC0004BFD1E49E06A0968C96A884202D30120B9
:101AD0001B4908601648006808B9012000E0002092
:101AE0000028D2D00CB1FFF74FFC1648056865B14D
:101AF00000BFFFF705FF10B10120114908606D1EFE
:101B0000002DF6D100200F4908600D48006838B15B
:101B1000012630070C490860BFF34F8FBFF36F8F6A
:101B2000FFF752FD304670BD300000200800002055
:101B30000C01002010000020800000200000002088
:101B40001C0000201800002004ED00E03A5354442B
:101B5000494E003A5354444F5554003A5354444567
:101B600052520000841B000800000020800000008A
:101B700028010008041C0008800000202814000030
:101B80004401000800000000000000000000000008
:101B90000000000000000000000000000000000045
:101BA0000000000000000000000000000000000035
:101BB0000000000000000000000000000000000025
:101BC000AAAAAAAA0000000000000000F80B00006A
:101BD0000000000000000000000000000000000005
:101BE0000000000000A24A04000000000000000005
:101BF00001020304060708090000000000000000BD
:041C000000000000E0
:04000005080000ED02
:00000001FF
