:020000040800F2
:1000000098340120FD0200080503000807030008DA
:10001000090300080B0300080D030008000000009E
:100020000000000000000000000000004502000881
:10003000110300080000000099020008CD0E00081E
:100040001703000817030008170300081703000828
:100050001703000817030008170300081703000818
:100060001703000817030008170300081703000808
:1000700017030008170300081703000817030008F8
:10008000170300081703000817030008000000000A
:10009000000000000000000000000000170300083E
:1000A00017030008170300081703000817030008C8
:1000B00017030008170300081703000817030008B8
:1000C00017030008170300081703000817030008A8
:1000D00017030008170300081703000800000000BA
:1000E00017030008170300081703000800000000AA
:1000F00000000000000000000000000017030008DE
:100100000000000017030008170300081703000889
:1001100000000000000000000000000000000000DF
:100120001703000817030008170300081703000847
:10013000170300080000000000000000000000009D
:10014000000000000000000000000000170300088D
:100150001703000817030008170300081703000817
:10016000170300081703000800000000000000004B
:10017000000000000000000000000000000000007F
:10018000000000001703000800000000000000004D
:100190001703000800F002F800F044F80AA090E805
:1001A000000C82448344AAF10107DA4501D100F032
:1001B00039F8AFF2090EBAE80F0013F0010F18BFBB
:1001C000FB1A43F001031847B4170000D4170000CE
:1001D000103A24BF78C878C1FAD8520724BF30C873
:1001E00030C144BF04680C60704700000023002445
:1001F00000250026103A28BF78C1FBD8520728BF37
:1002000030C148BF0B6070471FB501F0A5FB9DE8EA
:10021000030000F039FC00F039F91FBD10B500F003
:100220009EF910BD00F0F5F91146FFF7EDFF00F063
:100230001DFF00F0FBFB03B4FFF7F0FF03BC00F071
:1002400095FD00002A4B19680868B0E8F04F80F36C
:100250000988BFF36F8F4FF0000080F3118870475B
:100260000000000006480068006880F3088862B655
:1002700061B6BFF34F8FBFF36F8F00DF00BF00BFCA
:1002800008ED00E0DFF80C00016841F47001016046
:10029000704700BF88ED00E0EFF30980BFF36F8F78
:1002A000134B1A681EF0100F08BF20ED108A20E9CA
:1002B000F04F106008B44FF0500080F31188BFF386
:1002C0004F8FBFF36F8F01F0ABF94FF0000080F359
:1002D000118808BC19680868B0E8F04F1EF0100FCC
:1002E00008BFB0EC108A80F30988BFF36F8F7047A6
:1002F00000000020EFF305807047000009488047A8
:1003000009480047FEE7FEE7FEE7FEE7FEE7FEE7F7
:10031000FEE7FEE7FEE7FEE704480549054A064B0F
:1003200070470000F90E000895010008982E012082
:100330009834012098300120983001200FB40449EE
:1003400010B503AA029800F051F810BC5DF814FB38
:100350008C2D012002F0FF0343EA032242EA02420D
:1003600000F058B84FF0013C50F8042B51F8043B12
:100370009A4221D1A2EB0C03934313EACC1317D179
:1003800050F8042B51F8043B9A4215D1A2EB0C0310
:10039000934313EACC130BD150F8042B51F8043BD0
:1003A0009A4209D1A2EB0C03934313EACC13DBD09E
:1003B0004FF00000704700BFD01A01BAB1FA81F1C6
:1003C00001F0180122FA01F0CB40C1F12001DBB2AB
:1003D000C0B2C01A2CFA01F3D11A914311EAC31129
:1003E000E6D170477047704770470000074B70B503
:1003F0000D467B4400F033F80446284600F042F8EE
:1004000010B14FF0FF3070BD204670BD5D0C000094
:100410004FF000020429C0F0128010F0030C00F02D
:10042000D380CCF1040CBCF1020F18BF00F8012BF3
:10043000A8BF20F8022BA1EB0C0100F0C5B85FEAC1
:10044000C17C24BF00F8012B00F8012B48BF00F845
:10045000012B704701694A1C02610878704700B59A
:100460008FB0CDE901310021059105497944CDE9ED
:1004700003101146684600F018F90FB000BD0000E7
:10048000E5FFFFFF007B00F08000704710B5424899
:10049000542100F097F84148542100F093F8404867
:1004A000542100F08FF83F493B483C4A3F4B0860DD
:1004B0003D490A603A491960531C0365481C1065A0
:1004C000012008653B48344A39A1784400F012FA0B
:1004D00020B9384878440A3800F0AEFA37482F4A35
:1004E00035A1784400F006FA20B9344878440A3837
:1004F00000F0A2FA32482A4A2FA1784400F0FAF913
:1005000020B92F4878440A3800F096FA4023224850
:10051000DC000021224600F0CAF920B125487844C9
:10052000543800F089FA1D4822464023002100F08B
:10053000BEF920B121487844543800F07DFA1848BB
:1005400022461023002100F0B2F9002806D01C48F2
:100550007844BDE81040563800F06EBA10BD10481F
:1005600070B5006D20F001040B4800F039FA0B481B
:1005700000F036FA0A4800F033FA09E0206D20F066
:100580000105204600F02CFA204600F067F82C46C2
:10059000002CF3D170BD0000382D01208C2D0120DE
:1005A000E02D012064000020680000206C00002085
:1005B0007200000094140000770000008314000013
:1005C000731400004FF0000200B51346944696469F
:1005D000203922BFA0E80C50A0E80C50B1F1200156
:1005E000BFF4F7AF090728BFA0E80C5048BF0CC004
:1005F0005DF804EB890028BF40F8042B08BF704762
:1006000048BF20F8022B11F0804F18BF00F8012BD3
:100610007047754600F018FAAE4605006946534625
:1006200020F00700854618B020B5FFF775FEBDE83D
:1006300020404FF000064FF000074FF000084FF049
:10064000000B21F00701AC46ACE8C009ACE8C009DA
:10065000ACE8C009ACE8C0098D46704770B50446E7
:10066000051F00F0F5F90068002C14BF446870BD48
:10067000002C18BFAC423CBF20466468F8D3016828
:100680000A18AA4218BF456003D12A6805461144DA
:10069000016028684119A1421CBF6C6070BD61688F
:1006A000696021680844286070BD2DE9F041064664
:1006B0000024D6E90170F568804602E04146B8475B
:1006C000641C3046A8470028F8D12046BDE8F081D8
:1006D0002DE9F04705460C46C86820F4201040F488
:1006E0008000C860800602D5084600F0FEFAE06887
:1006F00041F282014FF0FF390140022903D0204628
:1007000000F09CFAB8E000F42041B1F5004F0FD1A1
:10071000C00306D56168E06A884200D80846606078
:1007200006E02069E0626060606900F01FFCA06183
:10073000A0680022EEB200280DDAE1688B050AD429
:10074000C043A06041F490302260E0606068411CCA
:1007500061600670A9E0E0689046226040F40050B5
:10076000E060206968BB606900F010FC012704F1BB
:100770002405A0B1A08910F4407F08D0E06900F002
:10078000B2F9206118B1E06840F4006016E0E7615A
:100790002561E06820F4407040F480600EE0E0697C
:1007A00000F0A1F900282061F1D0E06840F4006079
:1007B00010F4407FE06002D140F48070E060206976
:1007C0006060E06825696FF0010AC10521D56168A4
:1007D000E06A884200D80846411B04D022462846D9
:1007E00000F036FAF0BBE068010203D5E562C4E927
:1007F000015858E005F10101E1626160E16940F4EE
:100800008030A1F10101C4E9021030462E70BDE82C
:10081000F087010202D500F480320AE06068411CD2
:1008200061600670E0680A2E40F48030E06006D017
:100830000022E16A6068814203D90B4602E001228E
:10084000F7E70346A789A3EB05037F0503D4E76910
:100850009F4200DDEAB1814200D801460F1A002B09
:10086000E56200E008E0C4E9015807DD22461946C8
:10087000284600F0EDF908B14846C8E74FB1A06935
:10088000E5626560A0EB0700A061E06840F0100041
:10089000E060E068000208D56168A069E562491B74
:1008A00008446560A0615046B1E73046AFE770B5D7
:1008B000C468A50713D0650211D4B2F5807F09D0B2
:1008C000B2F5007F06D0B2F5806F08D1012300F1A8
:1008D000240106E05D1E6FF07F46B54201D3012082
:1008E00070BD0161C361416024F470611143C16056
:1008F000002070BD2DE9F0410C4607461646104613
:1009000000F06EF82078611C61280AD0722802D0AD
:1009100077283CD102E00125002405E002250424CB
:1009200002E0082448F2020511F8010B2B2806D03A
:10093000622809D011F8010C74280AD00BE045F0A8
:10094000030544F00204EFE745F0040544F0010418
:10095000EAE744F010043846214600F027FB411C2A
:1009600015D00021316171604FF40071F560F161C3
:100970007061200704D530460222002100F0E2F821
:10098000306D40F0010030653046BDE8F081002058
:10099000FBE72DE9F0410D460646104C206DC107DE
:1009A00004D0410804D020F00104F7E722460EE00D
:1009B000542000F098F807000ED0206D47F0010198
:1009C0000843542120653846FFF7FCFD3A46294686
:1009D0003046BDE8F0418DE70020D6E7382D0120F4
:1009E0002DE9F04704464FF000094FF0FF37C56886
:1009F000D4E90486A80707D0204600F053F9304612
:100A000000F0A4FA002802DA3846BDE8F08728058D
:100A100002D54046FFF722FE4C212046FFF7D2FDCB
:100A2000206D20F0010020654846EEE70446AFF354
:100A300000802046FFF7FFFB10B500F07DF9BDE810
:100A4000104000F073B9000000487047342E0120B8
:100A5000004870473C2E0120704770477047704730
:100A600038B504460A4600206946AFF300800028E6
:100A700008BF38BD02460099204600F084F90120E5
:100A800038BD012000F0D5B9F8B5AFF300800546B8
:100A900000200C46102000BF0646A819A0420DD920
:100AA000324669460020AFF30080070008BF00F01F
:100AB000C0F90098A04218BF0546C419FFF7C8FF47
:100AC00005600746F01D20F007004619284600F093
:100AD00053F9B44208BFF8BDA21B31463868BDE8DF
:100AE000F84000F050B970B50646FFF7B1FF056851
:100AF00006F10B0020F00704B4429CBF002070BD3B
:100B00002B466A68BAB11068A04210D304F10801FC
:100B100088423CBF5068586007D351681019416043
:100B20001168091B016058601460101D70BD1346E8
:100B30005268002AE7D121462846FFF791FF002896
:100B4000DED170BD2DE9F041044616460D464769D9
:100B5000007B80072ED0384600F018FA50BB3EB319
:100B6000012E02D0022E25D104E0204600F025F906
:100B700005441DE0384600F0F9F9E168002841F02D
:100B80001001E16005DA204600F058F80120BDE8C8
:100B9000F081C9030BD56268E16A914200D8114621
:100BA000A26911442269891A814200DD0846054480
:100BB000002D01DA0220EAE7E16A6068E26881421A
:100BC00006D29103E06203D522F4003141F0100215
:100BD000A6690027AE4213DCE16A814201D90B46C7
:100BE00000E0034603EB060C2369ACEB030CAC45B9
:100BF00006DD814201D98C4600E084469C4505D142
:100C0000A760276042F02000A5620DE0AD1BE669F9
:100C1000AE1B8142A66000D90846C01A281A20607F
:100C20005819606022F0200003490840E06000206D
:100C300084F84870ABE70000BFCFD7FFC16821F44C
:100C4000001141F08001C1600021816001607047A6
:100C50002DE9F047814614460E464FF0FF383248E2
:100C6000D5685769054209D03846A16900F0D2F924
:100C7000002811DB2C48C0430540E5602B46324676
:100C80004946384600F0CCF9A16920F00042B21A7A
:100C900011440028A16103D02046FFF7CFFF404652
:100CA000BDE8F08770B504460569C06A616888428E
:100CB00000D80846E16821F42011E160C90312D58B
:100CC000A84208D02246411B2846FFF7C1FF10B1B9
:100CD0004FF0FF3070BD0020E562C4E90150E068CC
:100CE00020F48030E060002070BD10B50446C0687C
:100CF00020F02000E060A16AA06988420DD0204663
:100D0000FFF7D0FFE06820F4405040F01000E060B2
:100D1000A06AA0612069E062606044F24001E0687E
:100D20008843E06010BD000010000200002801D0E0
:100D300000F01CB87047000010B5014602A000F09A
:100D40005FF8012010BD00005349475254524544FA
:100D50003A2052656469726563743A2063616E2754
:100D600074206F70656E3A20000000000149182061
:100D7000ABBEFEE72600020000210160C0E90110C1
:100D8000704710207047034640688C46002818BF03
:100D900088423CBF03464068F8D31868184488422C
:100DA00007D00CF1030020F00700001D411A521A71
:100DB0000146081D0A60FFF751BC10B50146C26824
:100DC000900703D0900607D5886A0BE000F040F842
:100DD00001210160881E10BD8B69486818440B69A9
:100DE000A0EB030091F8483023B191F84910A0EB33
:100DF000010010BD1103FCD50028FADD401E10BD16
:100E000070B505460C460A2000E06D1C00F018F88D
:100E100035B128780028F8D102E0641C00F010F801
:100E200014B120780028F8D1BDE870400A2000F005
:100E300007B810B500F010F8BDE81040FFF776BF16
:100E400008B569468DF800000320ABBE08BD7047A9
:100E500000487047342E012010B5012805D000212C
:100E600003A0FFF7CDFF012010BD09A1F8E70000A6
:100E700053494752544D454D3A204F7574206F6683
:100E80002068656170206D656D6F727900000000EB
:100E90003A2048656170206D656D6F727920636FCF
:100EA000727275707465640007490968C9070AD0D1
:100EB000054980390968C90705D04FF060410A68C3
:100EC000002AFCD008707047800E00E010B550205A
:100ED00080F31188BFF34F8FBFF36F8F00F070FC6A
:100EE00018B104494FF080500860002080F3118849
:100EF00010BD000004ED00E01048016841F47001ED
:100F000001600F48016841F0010101600C4A0021B5
:100F10000832116002680B4B1A400260031D0A4A36
:100F20001A60026822F48022026005480C300160D9
:100F300002495806803908607047000088ED00E0DB
:100F400000380240FFFFF6FE103000246FF400412D
:100F5000401805D0012805D0022805D00814704794
:100F60000020704700207047002070476FF4004158
:100F7000401805D0012805D0022805D00020704770
:100F80000020704700207047002070476FF4004138
:100F9000401805D0012805D0022805D00020704750
:100FA00001207047012070470120704770B504464A
:100FB0004FF0FF35002C04D020783A2803D0284683
:100FC00070BD284670BD0DA12046FFF7CBF958B182
:100FD0000CA12046FFF7C6F948B10CA12046FFF747
:100FE000C1F938B1284670BD48F2010070BD48F221
:100FF000020070BD48F2030070BD00003A53544433
:10100000494E00003A5354444F5554003A53544407
:10101000455252006FF4004101444FF0FF307047D9
:1010200070B50D4614466FF4004141184FF0FF3083
:1010300004D0012903D0022900D1002070BD34B1B1
:1010400015F8010B00F0D4F9641E002CF8D1002033
:1010500070BD8A68002A01DCFFF73ABB521E8A6025
:101060004A68C0B2531C4B60107070477CB5104882
:10107000016841F0010101600E48016841F480619E
:101080000160002501242B4696220BA10B48CDE9D7
:10109000004500F065FB0023962209A10948CDE92F
:1010A000004500F05DFB00F07FFA00207CBD0000F1
:1010B0003038024000000240543100001915000889
:1010C000543200006115000870B5044600F0BEF906
:1010D0001D4DA868401CA860286810B1686938B127
:1010E0000CE02C60A868012808D100F0CBF805E0DE
:1010F0002868E16AC06A884200D82C60686A401C8F
:1011000068622064E06A01212A69814011432961F3
:101110000E4900EB800001EB8000211D00F08AF9F0
:1011200000F0B4F9686900280CD02868E16AC06A48
:10113000884207D206494FF080500860BFF34F8FB6
:10114000BFF36F8F70BD0000000000207000002012
:1011500004ED00E070B5124E124D1CE000F058FA9C
:10116000306820B1002400F091FBA4B901E0012413
:10117000F9E700F06BF9F068C468201D00F03AF957
:10118000A868401EA8606868401E686000F07EF98C
:10119000204600F009F868680028DFD170BD000023
:1011A000100100200000002010B50446206B00F064
:1011B00083F92046BDE8104000F07EB9064820F0D3
:1011C00007000649086000234B600831044A4A6062
:1011D0000B60426001607047400100204400002025
:1011E000F82B0100FFF7B6FFFCE72DE9F047814639
:1011F000DDE908580A9C0E4617469A46B900A52212
:10120000206BFFF7A7F8206B7F1E00EB870020F014
:101210000707780707D0502080F31188BFF34F8F5E
:10122000BFF36F8FFEE700202218315C82F8341084
:10123000315C11B1401C0A28F6D3002684F83D60C9
:10124000052D00D30425E562A564E664201D00F0A9
:10125000EEF804F1180000F0EAF82461C5F1050089
:10126000A0616462266584F8546052464946384657
:1012700000F0ACF82060B8F1000F01D0C8F80040D1
:10128000BDE8F08770B50024124D04EB840005EB37
:10129000800000F0C1F8641C052CF6D30D486430C2
:1012A00000F0BAF80B48783000F0B6F809488C30F6
:1012B00000F0B2F80748A03000F0AEF80548B430AE
:1012C00000F0AAF803490448643141631431816392
:1012D00070BD000070000020000000200748416B36
:1012E0000968002905D0416BC968C96849688162ED
:1012F00070474FF0FF31816270470000000000200E
:1013000009484068401C07D0502080F31188BFF383
:101310004F8FBFF36F8FFEE7502080F31188BFF32C
:101320004F8FBFF36F8FFEE7540000202DE9F0418F
:101330000446002600F06CF9224D686818B9FFF7E2
:101340003DFF012068603CB10834600704D004F020
:101350000700C0F1080004441B49601E88422BD2DC
:10136000184A08321046016801E00A4601464868FA
:10137000A04202D208680028F7D1124810308142FA
:101380001AD016680836086810604868001B1028D4
:101390000ED90B1958604C605C680A48083000E0B0
:1013A000104602685768A742FAD302681A600360C1
:1013B00048682968081A286000F068FA3046BDE8D5
:1013C000F08100003C000020F72B0100A0F1240078
:1013D0004FF08073036221F00101C1610349816113
:1013E00042606FF0020140F82019704701130008B5
:1013F000FFF75ABD0169D0E901329A60D0E90123B3
:101400005A604A68824201D182684A6000220261C1
:101410000868401E0860704700F1080141604FF005
:10142000FF328260C16001610021016070470021CC
:101430000161704742684A6093688B6093685960A5
:10144000916008610168491C01607047502080F379
:101450001188BFF34F8FBFF36F8F0A494868401C54
:10146000486001280CD10848006810F0FF0F07D031
:10147000502080F31188BFF34F8FBFF36F8FFEE7CB
:10148000704700005400002004ED00E0094948685E
:10149000002806D0401E4860002801D180F3118842
:1014A0007047502080F31188BFF34F8FBFF36F8FC9
:1014B000FEE700005400002010B5002818D00838BE
:1014C000044600F0A5F860680A4900E011460A6881
:1014D00053688342FAD3086820600C60054861684D
:1014E0000838026811440160BDE8104000F0CEB930
:1014F00010BD00004400002006484FF47A710068D7
:10150000B0FBF1F14FF0E020491E4161072101617C
:10151000704700006000002008B500260096094DC5
:10152000094C0AA0FEF70AFF686940F020006861D4
:10153000009602E00098401C00900098A042F0D273
:10154000F8E7000000000240404B4C005461736B10
:101550002D312052756E6E696E672E0A00000000F4
:1015600008B500260096094D094C0AA0FEF7E6FED4
:10157000686920F020006861009602E00098401C35
:1015800000900098A042F0D2F8E70000000002406E
:10159000404B4C005461736B2D322052756E6E6956
:1015A0006E672E0A000000001CB515480024CDE926
:1015B00000402346822213A1144800F0D1F80128EC
:1015C00009D0401C1AD1502080F31188BFF34F8FEF
:1015D000BFF36F8FFEE7502080F31188BFF34F8F6A
:1015E000BFF36F8F06484FF0FF312C388162012125
:1015F0004161C460BDE81C4000F042B81CBD000061
:101600002C00002049444C4500000000E511000872
:101610000248016B491C0163704700000000002074
:10162000154A106B002802D00120D06170470020BD
:10163000D0611069B0FA80F0C0F11F000F4900EBD3
:10164000800051F8203073B101EB80004168496897
:10165000416000F10803994201D149684160406846
:10166000C06810607047502080F31188BFF34F8F1F
:10167000BFF36F8FFEE70000000000207000002025
:101680001CB532480168324A914207D1502080F39C
:101690001188BFF34F8FBFF36F8FFEE700682C49AF
:1016A000491E884207D1502080F31188BFF34F8F25
:1016B000BFF36F8FFEE7274908780190FF2008707D
:1016C000087800909DF800009DF8002000F0F000E0
:1016D000904207D0502080F31188BFF34F8FBFF3A3
:1016E0006F8FFEE79DF800001B4A00F0500010705D
:1016F0000720906006E09068401E90609DF8000012
:10170000400000909DF800000006F4D4107A00021A
:1017100000F4E0609060019808700C482030016887
:1017200041F470010160016841F070410160FFF710
:10173000E3FE00205060FEF7A5FD0848016841F077
:1017400040410160FEF78EFD00201CBD00ED00E071
:1017500071C20F4100E400E05400002034EF00E0CB
:101760002DE9FF5F8146DDE90E788A4616469B46E5
:10177000B000FFF7DBFD054655B15820FFF7D6FD59
:1017800004460CB1256304E02846FFF795FE00E00F
:1017900000248CB10020CDE90240CDE900785B4601
:1017A000324651464846FFF720FD2046FFF78CFCA5
:1017B000012004B0BDE8F09F4FF0FF30F9E70000D2
:1017C0002DE9F04100262F4F386B002808D0B8696A
:1017D000401CB861F86900B101263046BDE8F081CF
:1017E000FD686D1CFD609DB9786B006838B15020B4
:1017F00080F31188BFF34F8FBFF36F8FFEE7786BD5
:10180000B96B7963B863386A401C3862FFF766FDCC
:10181000B86ADFF8748085420DD3786B006838B100
:10182000786BC068C468606885420ED2B86202E016
:101830004FF0FF30B8623868C06A00EB800058F89B
:1018400020000128C6D90126C4E7201DFFF7D2FDDC
:10185000A06A18B104F11800FFF7CCFDE06A01217D
:101860003A6981401143396100EB800008EB800048
:10187000211DFFF7DFFDE06A3968C96A8842CCD3D1
:101880000126CAE700000020700000202DE9F04189
:10189000002400272D4D286B002807D0FFF7D6FD28
:1018A000286B401E2863286B40B14AE0502080F32B
:1018B0001188BFF34F8FBFF36F8FFEE7A868E8B3BF
:1018C000DFF88C8001261EE0D8F80C00C46804F113
:1018D0001800FFF78FFD201DFFF78CFDE06A2A69D5
:1018E00006FA00F111432961194900EB80008C3997
:1018F00001EB8000211DFFF79DFDE06A2968C96AA0
:10190000884200D3EE61D8F800000028DCD10CB189
:10191000FFF7E4FCAC6944B1FFF752FF00B1EE61A0
:10192000641E002CF8D10020A861E86930B10127BD
:10193000084938070860BFF34F8F00E001E0BFF3AC
:101940006F8FFFF7A3FD3846BDE8F081000000204F
:10195000FC00002004ED00E04FF04070E1EE100AC2
:1019600070473A535444494E003A5354444F5554E7
:10197000003A535444455252000000009C1900089C
:101980000000002070000000D00100080C1A0008C0
:101990007000002028340100EC0100080000000065
:1019A0000000000000000000000000000000000037
:1019B0000000000000000000000000000000000027
:1019C0000000000000000000000000000000000017
:1019D0000000000000000000F82B010000000000E3
:1019E00000000000000000000000000000000000F7
:1019F00000000000AAAAAAAA000000000024F40027
:0C1A0000000000000000000000000000DA
:040000050800019559
:00000001FF
