:020000040800F2
:10000000D8330120ED020008F5020008F7020008CD
:10001000F9020008FB020008FD02000800000000D1
:100020000000000000000000000000003502000891
:10003000010300080000000089020008E10E00082A
:100040000703000807030008070300080703000868
:100050000703000807030008070300080703000858
:100060000703000807030008070300080703000848
:100070000703000807030008070300080703000838
:10008000070300080703000807030008000000003A
:10009000000000000000000000000000070300084E
:1000A0000703000807030008070300080703000808
:1000B00007030008070300080703000807030008F8
:1000C00007030008070300080703000807030008E8
:1000D00007030008070300080703000800000000EA
:1000E00007030008070300080703000800000000DA
:1000F00000000000000000000000000007030008EE
:1001000000000000070300080703000807030008B9
:1001100000000000000000000000000000000000DF
:100120000703000807030008070300080703000887
:1001300007030008000000000000000000000000AD
:10014000000000000000000000000000070300089D
:100150000703000807030008070300080703000857
:10016000070300080703000800000000000000006B
:10017000000000000000000000000000000000007F
:10018000000000000703000800000000000000005D
:100190000703000800F002F800F03CF80AA090E81D
:1001A000000C82448344AAF10107DA4501D100F032
:1001B00031F8AFF2090EBAE80F0013F0010F18BFC3
:1001C000FB1A43F001031847D41B0000F41B000086
:1001D000103A24BF78C878C1FAD8520724BF30C873
:1001E00030C144BF04680C60704700000023002445
:1001F00000250026103A28BF78C1FBD8520728BF37
:1002000030C148BF0B6070471FB501F0B5FD1FBD81
:1002100010B510BD00F074F91146FFF7F5FF01F0BD
:10022000F7F800F092F903B4FFF7F2FF03BC00F017
:1002300097F900002A4B19680868B0E8F04F80F37E
:100240000988BFF36F8F4FF0000080F3118870476B
:100250000000000006480068006880F3088862B665
:1002600061B6BFF34F8FBFF36F8F00DF00BF00BFDA
:1002700008ED00E0DFF80C00016841F47001016056
:10028000704700BF88ED00E0EFF30980BFF36F8F88
:10029000134B1A681EF0100F08BF20ED108A20E9DA
:1002A000F04F106008B44FF0500080F31188BFF396
:1002B0004F8FBFF36F8F01F0C3FB4FF0000080F34F
:1002C000118808BC19680868B0E8F04F1EF0100FDC
:1002D00008BFB0EC108A80F30988BFF36F8F7047B6
:1002E00000000020EFF305807047000009488047B8
:1002F00009480047FEE7FEE7FEE7FEE7FEE7FEE708
:10030000FEE7FEE7FEE7FEE704480549054A064B1F
:1003100070470000A10F000895010008D82D0120AA
:10032000D8330120D82F0120D82F012053EA020C06
:1003300000F069802DE9F04B4FF00006002B1FBF45
:10034000B3FA83F503FA05F424FA05F65E4012BF0A
:100350001643B2FA82F502FA05F4C5F120051EBF74
:1003600022FA05FC44EA0C04203556EA044C4FEA14
:10037000144418BF641C4FF000084FF0000990426D
:1003800071EB030C39D3002919BFB1FA81F701FAD7
:1003900007F6B0FA80F700FA07F6C7F120071EBF8C
:1003A00020FA07FC46EA0C062037B6FBF4FCA7EB64
:1003B0000507103F07F01F0BCBF120060CFA0BFBD3
:1003C0002CFA06F644BFB3460026202FA4BF5E4693
:1003D0004FF0000B5BEA060C08BF4FF0010B19EB66
:1003E0000B09ABFB027C48EB0608C01B06FB02CCEA
:1003F0000BFB03CC71EB0C01C1E70B4602464146F7
:100400004846BDE8F08B13B54FF000004FF00001F7
:10041000AFF30080BDE81C40704710B5431C02E0FC
:1004200010F8011B71B18107FAD14FF0013202C8F7
:100430008C1A8C4314EAC211F9D0C01A0A0603D0F0
:10044000C01E10BDC01A10BD0A0401D0801E10BD10
:100450000902FCD0401E10BD02F0FF0343EA032254
:1004600042EA024200F02CB84FF0000200B51346F9
:1004700094469646203922BFA0E80C50A0E80C50C4
:10048000B1F12001BFF4F7AF090728BFA0E80C5075
:1004900048BF0CC05DF804EB890028BF40F8042B6E
:1004A00008BF704748BF20F8022B11F0804F18BFDB
:1004B00000F8012B70477047704770474FF00002FB
:1004C0000429C0F0128010F0030C3FF4CFAFCCF140
:1004D000040CBCF1020F18BF00F8012BA8BF20F8D4
:1004E000022BA1EB0C01FFF7C1BF5FEAC17C24BF67
:1004F00000F8012B00F8012B48BF00F8012B7047D2
:10050000754600F029F8AE4605006946534620F0CE
:100510000700854618B020B5FFF7F6FEBDE820407D
:100520004FF000064FF000074FF000084FF0000BAF
:1005300021F00701AC46ACE8C009ACE8C009ACE862
:10054000C009ACE8C0098D4670470446AFF300808F
:100550002046FFF768FE000000487047782D012014
:1005600001491820ABBEFEE72600020070470000DC
:100570002DE9F84F0022DFF86C91DFF8688109F16E
:1005800008094FF0010E4FF00F0C09F1040A0EFAA2
:1005900002F60B683340B34270D14C68022C01D094
:1005A000122C11D1D40800EB84073D6A5407E40EE5
:1005B0000CFA04FB25EA0B05D1F810B00BFA04FB8A
:1005C0004BEA050BC7F820B0076854000325A54087
:1005D000AF4391F804B00BF0030B0BFA04FB4BEAAA
:1005E000070BC0F800B04F68012F05D0022F03D0D1
:1005F000112F01D0122F11D18768AF43D1F80CB061
:100600000BFA04FB4BEA070BC0F808B04768B74386
:100610000E79C6F3001696403E434660C668AE4368
:100620008D68A5403543C5604C68E40054D52E4C18
:10063000256845F480452560246804F480440094CE
:100640002A4C22F0030525442F689407260F0CFA44
:1006500006F4A743264CA04201D1002415E0254C06
:10066000A04201D1012410E0234CA04201D1022478
:100670000BE0224CA04202D1032406E02CE0204CE7
:10068000A04201D1042400E00724B4403C432C6084
:10069000D8F800409C434D68ED0300D51C43C8F8D2
:1006A0000040104D2D1D2C689C434E68B60300D5AC
:1006B0001C432C60D9F800409C434D68ED0200D5E6
:1006C0001C43C9F80040DAF800409C434D68AD0275
:1006D00000D51C43CAF80040521C102AFFF457AF43
:1006E000BDE8F88F003C0140443802400838014022
:1006F000000002400004024000080240000C0240DA
:1007000000100240002A01D0816170470904816114
:1007100070470000014880687047000060000020BA
:1007200010B50948016841F400710160016841F4A5
:1007300080610160032000F04DF80F2000F006F802
:1007400000F026F8002010BD003C024070B50446C1
:100750000D4D4FF47A712878B1FBF0F00B49096820
:10076000B1FBF0F000F00EFB08B1012070BD102CC1
:1007700007D200222146501E00F00CF86C600020C9
:1007800070BD012070BD0000600000206C000020E2
:1007900070470000F0B40D460D4B1B68C3F30223F5
:1007A000C3F10704042C00D90424191D072901D220
:1007B000002300E0DB1E012606FA04F1491E294051
:1007C00099409E40761E16403143F0BC00F010BEAA
:1007D0000CED00E000F00701054A10684FF6FF033A
:1007E000184040EA012003490843106070470000A8
:1007F0000CED00E00000FA052DE9F04704460D4637
:10080000002C13D0DFF82491D9F80000EFB200F0EB
:100810000F00A8420CD289F80070D9F8000000F04F
:100820000F00A84204D00120BDE8F0870120FBE7BB
:1008300020683F4E810712D5400703D5306840F449
:10084000E05030602078000703D5306840F4604005
:1008500030603068A16820F0F000084330602078F4
:10086000C00731D0324960680839012808D0022811
:100870000BD0032809D0096889070BD40120D3E7DE
:100880000968890306D40120CEE70968890101D4EB
:100890000120C9E7316821F0030101433160FFF70E
:1008A00039FF804641F2883A07E0FFF733FFA0EBBB
:1008B0000800504501D90320B6E73068616800F0B0
:1008C0000C00B0EB810FF0D1D9F8000000F00F0060
:1008D000A84209D989F80070D9F8000000F00F008B
:1008E000A84201D001209FE72078400705D5306855
:1008F000E16820F4E050084330602078000706D516
:100900003068216920F4604040EAC100306000F0A6
:100910003BF83168074AC1F30311515CC8400649EE
:1009200008600F20FFF712FF00207DE7003C024027
:1009300008380240821D00086C0000200148006851
:10094000704700006C00002000B5FFF7F7FF044976
:100950000968044AC1F38221515CC84000BD00000F
:1009600008380240921D000800B5FFF7E7FF044970
:100970000968044AC1F34231515CC84000BD00001F
:1009800008380240921D000810B51748006810F0A2
:100990000C01164816D0164B042912D0082911D183
:1009A000114C241F216801F03F02216849020AD539
:1009B0002068C0F38810A0FB03010023FFF7B6FCFA
:1009C00009E0184610BD21680023C1F38811A1FB7E
:1009D0000001FFF7ABFC2168C1F30141491C49004C
:1009E000B0FBF1F010BD0000083802400024F40014
:1009F00040787D012DE9F84F0446002C10D0207876
:100A0000DC4DC00757D0DB4808300168C1F38101D5
:100A100001290DD00068C0F38100022803D00EE048
:100A20000120BDE8F88FD348001D0068400206D5BC
:100A3000286880033FD5606870BB0120F1E76068DB
:100A4000B0F5803F10D0B0F5A02F12D0286820F468
:100A500080302860286820F4802028606068E0B139
:100A6000FFF758FE064614E0286840F480302860FE
:100A7000F4E7286840F480202860286840F480303B
:100A80002860EBE7FFF746FE801B642801D90320AE
:100A9000C7E728688003F5D50DE0FFF73BFE064663
:100AA00006E0FFF737FE801B642801D90320B8E772
:100AB00028688003F5D42078AF4F80074FF00008F6
:100AC00049D5AC480830016811F00C0F09D0006816
:100AD000C0F38100022814D1A648001D006840021E
:100AE0000FD42868800704D5E068012801D00120D0
:100AF00097E72868216920F0F80040EAC1002860E3
:100B000029E0E068B8B101203860FFF703FE06462F
:100B100006E0FFF7FFFD801B022801D9032080E7D4
:100B200028688007F5D52868216920F0F80040EA98
:100B3000C10028600FE0C7F80080FFF7EBFD064614
:100B400006E0FFF7E7FD801B022801D9032068E7D4
:100B500028688007F5D42078000729D5DFF814929B
:100B60008648616909F1740989B101210160FFF7C3
:100B7000D1FD064606E0FFF7CDFD801B022801D916
:100B800003204EE7D9F800008007F4D510E0C0F844
:100B90000080FFF7BFFD064606E0FFF7BBFD801BA8
:100BA000022801D903203CE7D9F800008007F4D4DB
:100BB0002078400772D50026DFF8B8A10AF1400A74
:100BC000DAF80000C0000BD4DAF8000040F08050E2
:100BD000CAF80000DAF8000000F08050009001260A
:100BE000DFF89CB1DBF80000C00515D4DBF800008D
:100BF00040F48070CBF80000FFF78CFD814607E0E1
:100C0000FFF788FDA0EB0900022801D9032008E7BF
:100C1000DBF80000C005F3D5DFF858B1A0680BF190
:100C2000700B012813D0052818D0DBF8000020F045
:100C30000100CBF80000DBF8000020F00400CBF846
:100C40000000A06830B3FFF765FD81461DE0DBF8CA
:100C5000000040F00100CBF80000F2E7DBF80000F4
:100C600040F00400CBF80000DBF8000040F0010089
:100C7000CBF80000E5E7FFF74DFDA0EB090141F2DD
:100C80008830814201D90320CBE6DBF800008007E1
:100C9000F1D512E0FFF73EFD81460AE015E0FFF7CF
:100CA00039FDA0EB090141F28830814201D90320CE
:100CB000B7E6DBF800008007F1D4012E05D1DAF8A1
:100CC000000020F08050CAF80000A069C0B3294994
:100CD00008310968C1F38101022949D0022805D0F1
:100CE000C7F86080FFF716FD04463CE0C7F8608057
:100CF000FFF710FD064606E0FFF70CFD801B0228FB
:100D000001D903208DE628688001F5D4D4E90701D4
:100D10000843616AA26A4FF0FF33890103EB520274
:100D200041EA0241084394F82C1040EA016111485D
:100D3000001D016001203866FFF7ECFC044607E067
:100D400014E0FFF7E7FC001B022801D9032068E646
:100D500028688001F5D509E0FFF7DCFC001B0228BC
:100D600001D903205DE628688001F5D4002058E60B
:100D7000012056E60038024000004742800E4742FC
:100D80000070004010B5401EB0F1807F01D30120FB
:100D900010BD4FF0E02460610F21601700F028FBC8
:100DA0000020A06107202061002010BD70B504461E
:100DB000002C04D094F83900002510B106E0012081
:100DC00070BD84F83850204600F022F8242084F8C2
:100DD00039002068C16821F40051C160204600F04C
:100DE0004BF92068016921F4904101612068416953
:100DF00021F02A0141612068C16841F40051C160BD
:100E0000E563202084F8390084F83A00002070BDA2
:100E100070472DE9F84304460D4691461E4694F866
:100E20003900202802D00220BDE8F883B5B1B9F11D
:100E3000000F13D094F83800012811D0012084F855
:100E400038000027E763212084F83900FFF762FCAF
:100E50008046A4F82490A4F826902DE00120E3E732
:100E60000220E1E7E08C401EE084A068B0F5805FDE
:100E700009D04346002280212046009600F086FAE1
:100E8000B0B10320D0E743460022802120460096DF
:100E900000F07CFA08B10320C6E728882168C0F377
:100EA00008004860206908B16D1C05E0AD1C03E036
:100EB000216815F8010B4860E08C0028D2D1434628
:100EC000002240212046009600F060FA08B103207D
:100ED000AAE720203834607027700020A4E70000C3
:100EE00010B5502080F31188BFF34F8FBFF36F8F81
:100EF00000F076FE18B104494FF0805008600020E1
:100F000080F3118810BD000004ED00E030B593B00F
:100F1000302107A8FFF7A8FA142102A8FFF7A4FAC6
:100F200000241D48016841F080510160006800F014
:100F3000805001901948016821F4404141F400417A
:100F40000160006800F440400190022507950120EF
:100F50000A9010200B900D950E940F904FF4A870EE
:100F60001090042011900720129007A8FFF742FD6F
:100F700000B1FEE70F200290039504944FF48050D7
:100F800005900694022102A8FFF736FC002800D045
:100F9000FEE713B030BD0000403802400070004052
:100FA0001048016841F4700101600F48016841F088
:100FB000010101600C4A00210832116002680B4BEC
:100FC0001A400260031D0A4A1A60026822F4802255
:100FD000026005480C3001600249580680390860FB
:100FE0007047000088ED00E000380240FFFFF6FE89
:100FF0001030002430B587B000241B48016841F44C
:1010000000310160006800F400300190164810388B
:10101000016841F001010160006800F001000190E9
:10102000142102A8FFF720FA0C2502950220039054
:101030000494032005900720069002A90B48FFF7AF
:1010400097FA0C480A4901604FF4165141608460D8
:10105000C460046145618461C461FFF7A7FE002894
:1010600000D0FEE707B030BD40380240000002402B
:1010700000440040700000202DE9F0410446206843
:101080000169E26821F4405111430161A1682069BE
:10109000E26901436069104301432068C26849F274
:1010A0000C639A430A43C26020684169A26921F433
:1010B000407111434161E069B24AB3496425322667
:1010C000B0F5004F59D02068884201D090427DD1C0
:1010D000FFF74AFC00EBC00101EB001061688900DA
:1010E000B0FBF1F7FFF740FC00EBC00101EB001093
:1010F00061688900B0FBF1F0B0FBF5F06FF018010A
:10110000484307EB800006EB0010B0FBF5F000F061
:10111000F007FFF729FC00EBC00101EB001061684C
:101120008900B0FBF1F0B0FBF5F007EB0017FFF71B
:101130001BFC00EBC00101EB001061688900B0FBF3
:10114000F1F8FFF711FC00EBC00101EB0010616842
:101150008900B0FBF1F0B0FBF5F06FF018014843E7
:1011600008EB800006EB0010B0FBF5F0216800F002
:101170000F0038448860BDE8F0812068884201D0C3
:10118000904256D1FFF7F0FB00EBC00101EB0010DD
:1011900061684900B0FBF1F0B0FBF5F00701FFF723
:1011A000E3FB00EBC00101EB001061684900B0FBFC
:1011B000F1F8FFF7D9FB00EBC00101EB001061680B
:1011C0004900B0FBF1F0B0FBF5F000E086E06FF015
:1011D0001801484308EB800006EBC000B0FBF5F0B7
:1011E00000F0F80007EB4007FFF7BEFB00EBC00183
:1011F00001EB001061684900B0FBF1F8FFF7B4FBA8
:1012000000EBC00101EB001061684900B0FBF1F098
:10121000B0FBF5F06FF01801484308EB800006EBD7
:10122000C000B0FBF5F0216800F00700384488608A
:10123000A1E7FFF789FB00EBC00101EB001061683B
:101240004900B0FBF1F0B0FBF5F00701FFF77CFBC4
:1012500000EBC00101EB001061684900B0FBF1F840
:10126000FFF772FB00EBC00101EB00106168490061
:10127000B0FBF1F0B0FBF5F06FF01801484308EB5C
:10128000800006EBC000B0FBF5F000F0F80007EBC3
:101290004007FFF759FB00EBC00101EB001061684C
:1012A0004900B0FBF1F8FFF74FFB00EBC00101EB89
:1012B000001061684900B0FBF1F0B0FBF5F06FF091
:1012C0001801484308EB800006EBC000B0FBF5F0C6
:1012D000216800F00700384488604CE7FFF734FBD2
:1012E00000EBC00101EB001061688900B0FBF1F771
:1012F000FFF72AFB00EBC00101EB001061688900D9
:10130000B0FBF1F0B0FBF5F06FF01801484307EBCC
:10131000800006EB0010B0FBF5F000F0F007FFF7DF
:1013200013FB00EBC00101EB001061688900B0FB0A
:10133000F1F0B0FBF5F007EB0017FFF705FB00EB52
:10134000C00101EB001061688900B0FBF1F8FFF704
:10135000FBFA00EBC00101EB001061688900B0FBF3
:10136000F1F0B0FBF5F06FF01801484308EB800096
:1013700006EB0010B0FBF5F0216800F00F003844D8
:101380008860F8E600140140001001402DE9F041AA
:1013900004460E4617469846069D1DE0681C1BD065
:1013A0002DB1FFF7B7F9A0EB0800A84214D92068C7
:1013B000C16821F4D071C1602068416921F0010148
:1013C0004161202084F8390084F83A00002084F834
:1013D00038000320BDE8F0812068006836EA00008C
:1013E00004D00020B842D9D00020F3E70120F9E76B
:1013F0000907090E002802DB034A81547047034A9B
:1014000000F00F008154704700E400E014ED00E0AC
:1014100088B0FFF785F9FFF779FDFFF7EBFD0024B2
:101420001448016841F001010160006800F001000A
:101430000290142103A8FFF717F82020039001253C
:1014400004950594069403A90B48FFF791F8CDE99C
:1014500000540023802209A10A4800F091FBCDE945
:1014600000540023802208A1094800F089FB00F005
:10147000ABFAFEE730380240000002405461736B63
:1014800031000000E11800085461736B3200000065
:101490005519000870B5044600F0BCF91D4DA86848
:1014A000401CA860286810B1686938B10CE02C6055
:1014B000A868012808D100F0CBF805E02868E16AA7
:1014C000C06A884200D82C60686A401C6862206448
:1014D000E06A01212A698140114329610E4900EB2C
:1014E000800001EB8000211D00F088F900F0B2F9C6
:1014F000686900280CD02868E16AC06A884207D26F
:1015000006494FF080500860BFF34F8FBFF36F8FD5
:1015100070BD000000000020B000002004ED00E0DD
:1015200070B5124E124D1CE000F082FA306820B106
:10153000002400F0BBFBA4B901E00124F9E700F0AE
:1015400069F9F068C468201D00F038F9A868401EE9
:10155000A8606868401E686000F07CF9204600F0D2
:1015600009F868680028DFD170BD00005001002034
:101570000000002010B50446206B00F081F92046E1
:10158000BDE8104000F07CB9064820F0070006498D
:10159000086000234B600831044A4A600B604260D7
:1015A000016070478001002044000020F82B0100FA
:1015B000FFF7B6FFFCE72DE9F0478146DDE9085863
:1015C0000A9C0E4617469A46B900A522206BFEF7E4
:1015D00043FF206B7F1E00EB870020F00707780792
:1015E00007D0502080F31188BFF34F8FBFF36F8F68
:1015F000FEE700202218315C82F83410315C11B112
:10160000401C0A28F6D3002684F83D60052D00D33F
:101610000425E562A564E664201D00F0ECF804F101
:10162000180000F0E8F82461C5F10500A0616462CB
:10163000266584F8546052464946384600F0ACF8B6
:101640002060B8F1000F01D0C8F80040BDE8F08775
:1016500070B50024124D04EB840005EB800000F00F
:10166000BFF8641C052CF6D30D48643000F0B8F8C0
:101670000B48783000F0B4F809488C3000F0B0F82E
:101680000748A03000F0ACF80548B43000F0A8F8E6
:1016900003490448643141631431816370BD000023
:1016A000B0000020000000200748416B09680029B5
:1016B00005D0416BC968C9684968816270474FF0BD
:1016C000FF31816270470000000000200948406837
:1016D000401C07D0502080F31188BFF34F8FBFF319
:1016E0006F8FFEE7502080F31188BFF34F8FBFF359
:1016F0006F8FFEE7540000202DE9F04104460026DC
:1017000000F096F9224D686818B9FFF73DFF0120F7
:1017100068603CB10834600704D004F00700C0F1F1
:10172000080004441B49601E88422BD2184A083224
:101730001046016801E00A4601464868A04202D20C
:1017400008680028F7D11248103081421AD0166874
:101750000836086810604868001B10280ED90B195D
:1017600058604C605C680A48083000E01046026827
:101770005768A742FAD302681A600360486829686C
:10178000081A286000F092FA3046BDE8F0810000A7
:101790003C000020F72B0100A0F124004FF08073E3
:1017A000036221F00101C1610349816142606FF070
:1017B000020140F820197047CD1600080169D0E9F0
:1017C00001329A60D0E901235A604A68824201D10D
:1017D00082684A60002202610868401E0860704703
:1017E00000F1080141604FF0FF328260C160016189
:1017F00000210160704700210161704742684A6022
:1018000093688B6093685960916008610168491C16
:1018100001607047502080F31188BFF34F8FBFF3F2
:101820006F8F0A494868401C486001280CD108485D
:10183000006810F0FF0F07D0502080F31188BFF32D
:101840004F8FBFF36F8FFEE77047000054000020FA
:1018500004ED00E009494868002806D0401E4860B1
:10186000002801D180F311887047502080F311883F
:10187000BFF34F8FBFF36F8FFEE7000054000020CF
:1018800010B5002818D00838044600F0D1F8606878
:101890000A4900E011460A6853688342FAD308688F
:1018A00020600C60054861680838026811440160D6
:1018B000BDE8104000F0FAB910BD0000440000205F
:1018C00006484FF47A710068B0FBF1F14FF0E02068
:1018D000491E416107210161704700006C00002032
:1018E00008B50FF24C08DFF85CA0174C174F002525
:1018F0004FF0FF394FF080564046FEF78EFD82B222
:101900004B4641461248FFF784FA012220215046F7
:10191000FEF7F8FE009502E0009A521C0092009833
:10192000A042F9D33E60BFF34F8FBFF36F8FE3E761
:101930005461736B2D312052756E6E696E672E0D7A
:101940000A00000000000240C0C62D0004ED00E0C7
:101950007000002008B50FF24C08DFF85CA0174CAF
:10196000174F00254FF0FF394FF080564046FEF7E5
:1019700054FD82B24B4641461248FFF74AFA002214
:1019800020215046FEF7BEFE009502E0009A521C50
:1019900000920098A042F9D33E60BFF34F8FBFF38F
:1019A0006F8FE3E75461736B2D322052756E6E6951
:1019B0006E672E0D0A00000000000240C0C62D0018
:1019C00004ED00E0700000201CB515480024CDE9AE
:1019D00000402346822213A1144800F0D1F80128C8
:1019E00009D0401C1AD1502080F31188BFF34F8FCB
:1019F000BFF36F8FFEE7502080F31188BFF34F8F46
:101A0000BFF36F8F06484FF0FF312C388162012100
:101A10004161C460BDE81C4000F042B81CBD00003C
:101A20002C00002049444C4500000000B11500087E
:101A30000248016B491C0163704700000000002050
:101A4000154A106B002802D00120D0617047002099
:101A5000D0611069B0FA80F0C0F11F000F4900EBAF
:101A6000800051F8203073B101EB80004168496873
:101A7000416000F10803994201D149684160406822
:101A8000C06810607047502080F31188BFF34F8FFB
:101A9000BFF36F8FFEE7000000000020B0000020C1
:101AA0001CB532480168324A914207D1502080F378
:101AB0001188BFF34F8FBFF36F8FFEE700682C498B
:101AC000491E884207D1502080F31188BFF34F8F01
:101AD000BFF36F8FFEE7274908780190FF20087059
:101AE000087800909DF800009DF8002000F0F000BC
:101AF000904207D0502080F31188BFF34F8FBFF37F
:101B00006F8FFEE79DF800001B4A00F05000107038
:101B10000720906006E09068401E90609DF80000ED
:101B2000400000909DF800000006F4D4107A0002F6
:101B300000F4E0609060019808700C482030016863
:101B400041F470010160016841F070410160FFF7EC
:101B5000B7FE00205060FEF78DFB0848016841F099
:101B600040410160FEF776FB00201CBD00ED00E067
:101B700071C20F4100E400E05400002034EF00E0A7
:101B80002DE9FF5F8146DDE90E788A4616469B46C1
:101B9000B000FFF7B1FD054655B15820FFF7ACFD89
:101BA00004460CB1256304E02846FFF769FE00E017
:101BB00000248CB10020CDE90240CDE900785B46DD
:101BC000324651464846FFF7F6FC2046FFF762FCD6
:101BD000012004B0BDE8F09F4FF0FF30F9E70000AE
:101BE0002DE9F04100262F4F386B002808D0B86946
:101BF000401CB861F86900B101263046BDE8F081AB
:101C0000FD686D1CFD609DB9786B006838B150208F
:101C100080F31188BFF34F8FBFF36F8FFEE7786BB0
:101C2000B96B7963B863386A401C3862FFF73CFDD2
:101C3000B86ADFF8748085420DD3786B006838B1DC
:101C4000786BC068C468606885420ED2B86202E0F2
:101C50004FF0FF30B8623868C06A00EB800058F877
:101C600020000128C6D90126C4E7201DFFF7A6FDE4
:101C7000A06A18B104F11800FFF7A0FDE06A012185
:101C80003A6981401143396100EB800008EB800024
:101C9000211DFFF7B3FDE06A3968C96A8842CCD3D9
:101CA0000126CAE700000020B00000202DE9F04125
:101CB000002400272D4D286B002807D0FFF7AAFD30
:101CC000286B401E2863286B40B14AE0502080F307
:101CD0001188BFF34F8FBFF36F8FFEE7A868E8B39B
:101CE000DFF88C8001261EE0D8F80C00C46804F1EF
:101CF0001800FFF763FD201DFFF760FDE06A2A6909
:101D000006FA00F111432961194900EB80008C3972
:101D100001EB8000211DFFF771FDE06A2968C96AA7
:101D2000884200D3EE61D8F800000028DCD10CB165
:101D3000FFF7BAFCAC6944B1FFF752FF00B1EE61A6
:101D4000641E002CF8D10020A861E86930B1012799
:101D5000084938070860BFF34F8F00E001E0BFF388
:101D60006F8FFFF777FD3846BDE8F0810000002057
:101D70003C01002004ED00E04FF04070E1EE100A5D
:101D80007047000000000000000001020304060785
:101D9000080900000000010203040000BC1D000847
:101DA0000000002070000000D00100082C1E000878
:101DB0007000002068330100EC0100080000000002
:101DC0000000000000000000000000000000000013
:101DD0000000000000000000000000000000000003
:101DE00000000000000000000000000000000000F3
:101DF0000000000000000000F82B010000000000BF
:101E000000000000000000000000000000000000D2
:101E100000000000AAAAAAAA000000000100000019
:0C1E200010000000000000000024F4008E
:040000050800019559
:00000001FF
